:100000000C9434000C9451000C9451000C94510049
:100010000C9451000C9451000C9451000C9451001C
:100020000C9451000C9451000C9451000C9451000C
:100030000C9451000C9451000C9451000C945100FC
:100040000C9451000C9451000C9451000C945100EC
:100050000C9451000C9451000C9451000C945100DC
:100060000C9451000C94510011241FBECFEFD8E026
:10007000DEBFCDBF11E0A0E0B1E0E0EFFEE002C0E6
:1000800005900D92A434B107D9F721E0A4E4B1E0C2
:1000900001C01D92AB34B207E1F70E94F8020C9444
:1000A00076070C94000085B5816085BD87E29CE8E9
:1000B0000197F1F700C0000085B58E7F85BD87E808
:1000C00095E40197F1F700C00000089585B58160BF
:1000D00085BD87E79AE00197F1F700C0000085B57C
:1000E0008E7F85BD089585B5816085BD87E79AE0DF
:1000F0000197F1F700C0000085B58E7F85BD87E9C7
:1001000098E00197F1F700C00000089585B581607F
:1001100085BD87E79AE00197F1F700C0000085B53B
:100120008E7F85BD87E599E10197F1F700C000005A
:10013000089585B5816085BD87E79AE00197F1F75D
:1001400000C0000085B58E7F85BD87E998E00197E6
:10015000F1F700C0000085B5816085BD87E79AE0B2
:100160000197F1F700C0000085B58E7F85BD87E55A
:1001700099E10197F1F700C0000085B5816085BD68
:1001800087E79AE00197F1F700C0000085B58E7F00
:1001900085BD9FE328EF80E0915020408040E1F74B
:1001A00000C000000895A2E0B0E0E9EDF0E00C949A
:1001B0004E0389839A830E9453008981082F9A8174
:1001C000192F98E0D92EF801F1908F0188E0E82EE0
:1001D000F7FE03C00E94860002C00E947300FF0C5D
:1001E000EA94E110F5CFF5E0DF1202C00E94990019
:1001F000DA94D110E8CF0E9466002296E7E00C94D2
:100200006A038091C00087FFFCCF8091C6000895EB
:100210009091C00095FFFCCF8093C6000895909305
:10022000C5008093C40088E18093C100E5E4F1E05B
:1002300080E191E09183808393838283089528985D
:10024000209A8FE797E00197F1F700C0000020980F
:10025000EFEEF0E03197F1F700C0000083B1EFE876
:10026000F6E03197F1F700C00000817008952898FA
:10027000209A95E09A95F1F70000811120988FEE71
:1002800090E00197F1F700C00000209808952898A9
:10029000209A85E08A95F1F7000020989AE49A95D3
:1002A000F1F700C083B190EF9A95F1F7817008954E
:1002B000CF93DF93D82FC9E0C15031F08D2F8170DB
:1002C0000E943701D695F8CFDF91CF910895CF9353
:1002D000DF93D9E0C0E0D15049F00E94470120E807
:1002E000829FC0011124C695C82BF5CF8C2FDF91BA
:1002F000CF910895382FFC0180E04CE89E2F931B8E
:10030000961758F4219198E0522F5827869550FD62
:10031000842726959150C1F7F1CF08950F931F932D
:10032000CF93DF93EC010E941F018881811104C0EB
:100330008CEC0E94580109C08E01085F1F4F899103
:100340000E945801C017D107D1F784E40E945801D8
:10035000C1E10E94470181110CC0C15061F02FEF33
:1003600080E792E0215080409040E1F700C000001B
:10037000F0CF80E001C081E0DF91CF911F910F911C
:100380000895A4E0B0E0E7ECF1E00C944D03182FE1
:10039000F89499830E941F0185E50E945801C12E9F
:1003A0009981D92E760188E0E80EF11CF601819141
:1003B0006F010E945801CE14DF04C1F78EEB0E943A
:1003C00058010E946701082F0E946701182F789436
:1003D000602F62956F70F62EF0E18F9FF00C112464
:1003E000F7FCF094602F6F7070E080E090E00E9466
:1003F000E90320E030E040E85DE30E9475049B01E2
:10040000AC016F2D70E0072E000C880B990B29832F
:100410003A834B835C8317FF16C00E94E9036B018C
:100420007C0129813A814B815C8160E070E080E849
:100430009FE30E947A039B01AC01C701B6010E94B1
:100440007B03905808C00E94E90329813A814B81BF
:100450005C810E947B032496E8E00C946903CF93AF
:10046000F8940E941F018CEC0E94580184E40E94C1
:1004700058010E9447018823E1F30E941F018CEC80
:100480000E9458018EEB0E9458010E946701C82FFC
:100490000E9467017894682F87FF0AC0609570E01A
:1004A000762F6627C0956C0F711D6095709505C0FD
:1004B00070E0762F66276C0F711D072E000C880BDD
:1004C000990B0E94E90320E030E040E85DE30E94E0
:1004D0007504CF910895A1E0B0E0E1E7F2E00C945B
:1004E0004F03182F99830E941F0183E30E94580134
:1004F000E12E9981F92E8701085F1F4F0E94670145
:10050000F70181937F01E017F107C1F72196E6E03B
:100510000C946B03A0E0B0E0E0E9F2E00C9445033A
:100520006C01912C812C0E941F0180EF0E945801C8
:10053000560188E0889EA00CB11C1124850108504A
:100540001109E12CF12CD0E0712C88E0682E6D0EA1
:10055000C0E00E944701582E0E944701482E5816BD
:1005600041F0852D0E943701C695F0E85F9EC019C5
:10057000112481E0581203C0481220C034C0511029
:100580001DC041101BC0C695D91579F0D91590F43E
:10059000F801808190E097012D0F311D02C09595E3
:1005A00087952A95E2F780FF05C081E00E94370118
:1005B000C05804C080E00E9437017D2EDF5FD61155
:1005C000C8CFF501C1935F010F5F1F4FF8E0EF1A2D
:1005D000F10880ECE8168FEFF80609F0B6CF972CFB
:1005E00083947110A0CFCDB7DEB7E0E10C94610326
:1005F000A0E1B0E0EEEFF2E00C944F0383E390E073
:100600000E940F01259A5D98569A5E9A84B582647D
:1006100084BD83ED87BD98E07E0129E0E20EF11CE8
:10062000F701292F11922A95E9F7EEE1F1E0DE01B9
:10063000119601900D929A95E1F706E211E0C7013B
:100640000E948E01CE0101960E94C1019F938F935B
:100650007F936F931F930F930E94E2048FEF93EDAC
:10066000E0E381509040E040E1F700C000000F90CF
:100670000F900F900F900F900F90909144019F5FFB
:1006800090934401DCCF2F923F924F925F926F92F2
:100690007F928F929F92AF92BF92CF92DF92EF9212
:1006A000FF920F931F93CF93DF93CDB7DEB7CA1B93
:1006B000DB0B0FB6F894DEBF0FBECDBF09942A88BE
:1006C000398848885F846E847D848C849B84AA8466
:1006D000B984C884DF80EE80FD800C811B81AA81F3
:1006E000B981CE0FD11D0FB6F894DEBF0FBECDBFBE
:1006F000ED0108955058BB27AA270E9492030C943D
:100700003B040E942D0438F00E94340420F039F498
:100710009F3F19F426F40C942A040EF4E095E7FBAD
:100720000C942404E92F0E944C0458F3BA17620772
:1007300073078407950720F079F4A6F50C946E04EE
:100740000EF4E0950B2EBA2FA02D0B01B9019001EC
:100750000C01CA01A0011124FF27591B99F0593F30
:1007600050F4503E68F11A16F040A22F232F342F78
:100770004427585FF3CF469537952795A795F040C6
:100780005395C9F77EF41F16BA0B620B730B840BDB
:10079000BAF09150A1F0FF0FBB1F661F771F881F93
:1007A000C2F70EC0BA0F621F731F841F48F48795EB
:1007B00077956795B795F7959E3F08F0B0CF9395DD
:1007C000880F08F09927EE0F979587950895E8947C
:1007D00009C097FB3EF490958095709561957F4F89
:1007E0008F4F9F4F9923A9F0F92F96E9BB27939537
:1007F000F695879577956795B795F111F8CFFAF447
:10080000BB0F11F460FF1BC06F5F7F4F8F4F9F4F77
:1008100016C0882311F096E911C0772321F09EE8D5
:10082000872F762F05C0662371F096E8862F70E03B
:1008300060E02AF09A95660F771F881FDAF7880F15
:100840009695879597F9089597F99F6780E870E0E6
:1008500060E008959FEF80EC089500240A94161636
:10086000170618060906089500240A94121613069E
:10087000140605060895092E0394000C11F488232C
:1008800052F0BB0F40F4BF2B11F460FF04C06F5F48
:100890007F4F8F4F9F4F089557FD9058440F551F1E
:1008A00059F05F3F71F04795880F97FB991F61F0F2
:1008B0009F3F79F087950895121613061406551F69
:1008C000F2CF4695F1DF08C0161617061806991FD5
:1008D000F1CF86957105610508940895E894BB27CA
:1008E00066277727CB0197F908950E9488040C9416
:1008F0003B040E942D0438F00E94340420F095231C
:1009000011F00C9424040C942A0411240C946F0408
:100910000E944C0470F3959FC1F3950F50E0551F52
:10092000629FF001729FBB27F00DB11D639FAA2744
:10093000F00DB11DAA1F649F6627B00DA11D661F93
:10094000829F2227B00DA11D621F739FB00DA11DB4
:10095000621F839FA00D611D221F749F3327A00D6E
:10096000611D231F849F600D211D822F762F6A2F0A
:1009700011249F5750409AF0F1F088234AF0EE0F6F
:10098000FF1FBB1F661F771F881F91505040A9F79C
:100990009E3F510580F00C9424040C946F045F3F3B
:1009A000E4F3983ED4F3869577956795B795F795D8
:1009B000E7959F5FC1F7FE2B880F911D9695879550
:1009C00097F90895A0E0B0E0E8EEF4E00C9453034A
:1009D000AE014B5F5F4FFA0161917191AF01809160
:1009E0004701909148010E94F804E2E00C946F03E3
:1009F000ACE0B0E0EEEFF4E00C9443037C016B015B
:100A00008A01FC0117821682838181FFBDC1CE015C
:100A100001964C01F7019381F60193FD859193FFB7
:100A200081916F01882309F4ABC1853239F493FDBC
:100A3000859193FF81916F01853229F4B70190E090
:100A40000E94E006E7CF512C312C20E02032A0F4A8
:100A50008B3269F030F4803259F0833269F42061CE
:100A60002CC08D3239F0803339F4216026C02260E9
:100A7000246023C0286021C027FD27C030ED380F37
:100A80003A3078F426FF06C0FAE05F9E300D11245C
:100A9000532E13C08AE0389E300D1124332E20626D
:100AA0000CC08E3221F426FD6BC1206406C08C364A
:100AB00011F4206802C0883641F4F60193FD859157
:100AC00093FF81916F018111C1CF982F9F7D955424
:100AD000933028F40C5F1F4FFFE3F9830DC083367A
:100AE00031F0833771F0833509F05BC022C0F80123
:100AF000808189830E5F1F4F44244394512C5401FD
:100B000015C03801F2E06F0E711CF801A080B180B1
:100B100026FF03C0652D70E002C06FEF7FEFC501B7
:100B20002C870E94D5062C0183012C852F77222E3D
:100B300017C03801F2E06F0E711CF801A080B1807F
:100B400026FF03C0652D70E002C06FEF7FEFC50187
:100B50002C870E94CA062C012C852068222E830136
:100B600023FC1BC0832D90E048165906B0F4B70152
:100B700080E290E00E94E0063A94F4CFF50127FC71
:100B8000859127FE81915F01B70190E00E94E00608
:100B900031103A94F1E04F1A51084114510471F7A1
:100BA000E5C0843611F0893639F5F80127FF07C012
:100BB00060817181828193810C5F1F4F08C06081C9
:100BC0007181072E000C880B990B0E5F1F4F2F763B
:100BD000722E97FF09C090958095709561957F4F13
:100BE0008F4F9F4F2068722E2AE030E0A4010E94B0
:100BF0001807A82EA81844C0853729F42F7EB22ED6
:100C00002AE030E025C0F22FF97FBF2E8F36C1F0E9
:100C100018F4883579F0B4C0803719F0883721F09E
:100C2000AFC02F2F2061B22EB4FE0DC08B2D84607B
:100C3000B82E09C024FF0AC09F2F9660B92E06C0A7
:100C400028E030E005C020E130E002C020E132E0E1
:100C5000F801B7FE07C060817181828193810C5FCA
:100C60001F4F06C06081718180E090E00E5F1F4FD2
:100C7000A4010E941807A82EA818FB2DFF777F2E2D
:100C800076FE0BC0372D3E7FA51450F474FE0AC0CB
:100C900072FC08C0372D3E7E05C0BA2C372D03C02C
:100CA000BA2C01C0B52C34FF0DC0FE01EA0DF11DB8
:100CB0008081803311F4397E09C032FF06C0B394BD
:100CC000B39404C0832F867809F0B39433FD13C026
:100CD00030FF06C05A2CB31418F4530C5B18B32C15
:100CE000B31468F4B70180E290E03C870E94E0060C
:100CF000B3943C85F5CFB31410F43B1801C0312CEC
:100D000034FF12C0B70180E390E03C870E94E00608
:100D10003C8532FF17C031FD03C088E790E002C078
:100D200088E590E0B7010CC0832F867859F031FF39
:100D300002C08BE201C080E237FD8DE2B70190E096
:100D40000E94E006A51438F4B70180E390E00E9409
:100D5000E0065A94F7CFAA94F401EA0DF11D8081C0
:100D6000B70190E00E94E006A110F5CF332009F40E
:100D700051CEB70180E290E00E94E0063A94F6CFAF
:100D8000F7018681978102C08FEF9FEF2C96E2E1F9
:100D90000C945F03FC010590615070400110D8F77E
:100DA000809590958E0F9F1F0895FC0161507040B3
:100DB00001900110D8F7809590958E0F9F1F089590
:100DC0000F931F93CF93DF93FB01238121FD03C07A
:100DD0008FEF9FEF28C022FF16C0468157812481E4
:100DE00035814217530744F4A081B1819D012F5FE3
:100DF0003F4F318320838C93268137812F5F3F4F74
:100E00003783268310C0EB01092F182F0084F1854A
:100E1000E02D0995892BE1F68E819F8101969F83B4
:100E20008E83812F902FDF91CF911F910F91089585
:100E3000FA01AA27283051F1203181F1E8946F930B
:100E40006E7F6E5F7F4F8F4F9F4FAF4FB1E03ED0B1
:100E5000B4E03CD0670F781F891F9A1FA11D680F4F
:100E6000791F8A1F911DA11D6A0F711D811D911D82
:100E7000A11D20D009F468943F912AE0269F1124F7
:100E80003019305D3193DEF6CF010895462F47705B
:100E9000405D4193B3E00FD0C9F7F6CF462F4F70B6
:100EA000405D4A3318F0495D31FD4052419302D014
:100EB000A9F7EACFB4E0A6959795879577956795BA
:100EC000BA95C9F700976105710508959B01AC01BA
:100ED0000A2E06945795479537952795BA95C9F7E1
:100EE000620F731F841F951FA01D0895F894FFCFF4
:100EF0008010060A0004000A9010060A0004000B85
:100F00000000000300000000080101010000282D7E
:100F1000B204050000155468656D706572617475E2
:100F200072653D2025332E326C6620646567204350
:040F30000D0A0000A6
:00000001FF
